:10000000C6C00000E2C00000E0C00000DEC000008A
:10001000DCC00000DAC00000D8C00000D6C000007C
:10002000D4C00000D2C00000D0C00000CEC000008C
:10003000CCC00000CAC00000C8C0000078C20000E8
:1000400051C20000C2C0000022C20000BEC00000B9
:10005000BCC00000BAC00000B8C00000B6C00000BC
:10006000B4C00000B2C00000B0C00000AEC00000CC
:10007000ACC00000AAC00000A8C00000A6C00000DC
:10008000A4C00000A2C00000A0C000006E616E000D
:10009000696E660000407A10F35A00A0724E18098B
:1000A0000010A5D4E80000E87648170000E40B54DF
:1000B000020000CA9A3B000000E1F50500008096AE
:1000C0009800000040420F000000A08601000000E0
:1000D000102700000000E80300000000640000009A
:1000E00000000A00000000000100000000002C7663
:1000F000D888DC674F0823DFC1DFAE59E1B1B7967E
:10010000E5E3E453C63AE651997696E8E6C28426DA
:10011000EB898C9B62ED407C6FFCEFBC9C9F40F2B6
:10012000BAA56FA5F490055A2AF75C936B6CF96732
:100130006DC11BFCE0E40D47FEF520E6B500D0EDF7
:10014000902E0300943577050080841E080000205F
:100150004E0A000000C80C333333330F986E1283FD
:100160001141EF8D2114893BE65516CFFEE6DB18D1
:10017000D1844B381BF77C1D901DA4BBE424203296
:1001800084725E228100C9F124ECA1E53D2711248F
:100190001FBECFEFD0E1DEBFCDBF14E0A0E0B1E0E5
:1001A000EAEEF7E100E00BBF02C007900D92A63027
:1001B000B107D9F724E0A6E0B4E001C01D92A13355
:1001C000B207E1F7BED10C94F30B1ACFCF93C82F2F
:1001D0008A3011F48DE0FADF5D9BFECF5E9ACCB9D8
:1001E0005E9BFECF80E090E0CF91089587708064A1
:1001F00087B987E886B9369A349BFECF84B195B12A
:1002000008958770806C87B987E886B9369A349BE1
:10021000FECF84B195B1089581E0E8DFBC0180E0B4
:1002200090E074D420E030E040EA50E425D520E0AE
:1002300030EC4FE754E402C481E0D8DFBC0180E039
:1002400090E064D420E030E040EA51E415D520E0AD
:1002500030EC4FE754E4F2D320E030E040E251E4E8
:1002600084C38F929F92AF92BF92CF92DF92EF9210
:10027000FF9285E0BBDFBC0180E090E047D420E046
:1002800030E040EA50E4F8D420E030EC4FE754E4AA
:10029000D5D36B017C0120E030E04AE754E4ECD494
:1002A0004B015C01A701960160E070E080EA90E4F8
:1002B0005CD39B01AC01C501B401C0D3FF90EF90AA
:1002C000DF90CF90BF90AF909F908F9008958F92C6
:1002D0009F92AF92BF92CF92DF92EF92FF9286E011
:1002E00085DFBC0180E090E011D420E030E040EAFE
:1002F00050E4C2D420E030EC4FE754E49FD36B01CC
:100300007C0120E030E04AE754E4B6D44B015C01C4
:10031000A701960160E070E080EA90E426D39B019B
:10032000AC01C501B4018AD3FF90EF90DF90CF906C
:10033000BF90AF909F908F9008958F929F92AF92B1
:10034000BF92CF92DF92EF92FF9287E04FDFBC0126
:1003500080E090E0DBD320E030E040EA50E48CD451
:1003600020E030EC4FE754E469D36B017C0120E0DE
:1003700030E04AE754E480D44B015C01A7019601C8
:1003800060E070E080EA90E4F0D29B01AC01C5012E
:10039000B40154D3FF90EF90DF90CF90BF90AF9017
:1003A0009F908F9008958F929F92AF92BF92CF921D
:1003B000DF92EF92FF9282E024DFBC0180E090E0C8
:1003C000A5D32AE037ED43EA50E456D420E030ECE0
:1003D0004FE754E433D36093210470932204809355
:1003E00023049093240484E00CDFBC0180E090E0BF
:1003F0008DD323E23BED49E751E43ED420E030ECDD
:100400004FE754E41BD360931A0470931B0480934A
:100410001C0490931D0483E0F4DE809021049090EE
:100420002204A0902304B0902404C0902104D09012
:100430002204E0902304F0902404BC0180E090E0CA
:1004400065D32AE037ED43E250E416D420E030ECE7
:100450004FE754E4F3D2A501940187D223E333E3B9
:1004600043EC50E409D4A701960180D260931604AE
:10047000709317048093180490931904FF90EF90E1
:10048000DF90CF90BF90AF909F908F9008951F9274
:100490000F920FB60F9211240BB60F928F939F936A
:1004A000EF93FF938BB19CB18C7151F480911E043A
:1004B000E82FF0E0E55FFB4F90838F5F80931E0491
:1004C000FF91EF919F918F910F900BBE0F900FBEF8
:1004D0000F901F90189581E087BF87EC81BF8AE05D
:1004E00083BF08951F920F920FB60F9211248F931E
:1004F0009F93AF93BF938091270490912804A0917C
:100500002904B0912A040196A11DB11D80932704EE
:1005100090932804A0932904B0932A04BF91AF912B
:100520009F918F910F900FBE0F901F9018951F9263
:100530000F920FB60F9211240F900FBE0F901F90C5
:100540001895CF93DF9300D000D0CDB7DEB71ABA9D
:1005500080EE87BB14BA11BA12B81092610081E024
:1005600080936400809165008E7F80936500B3DF87
:1005700078948FEF93E097BD86BD8FEF91E09BBDA0
:100580008ABD99BD88BD909379008093780086EBF1
:100590008FBD89E18EBD10927A008A9A929887E683
:1005A00090E0A0E0B0E089839A83AB83BC8389812B
:1005B0009A81AB81BC81892F9A2FAB2FBB27809367
:1005C000900089819A81AB81BC8189B988E98AB917
:1005D00086E0809395001BB880E091E090932E0414
:1005E00080932D0410921E0482E291E00E94650B1C
:1005F0002FEF31EE84E0215030408040E1F700C021
:100600000000D1DE8091210490912204A091230466
:10061000B0912404BF93AF939F938F9382E391E0B3
:100620009F938F930E94520B80911A0490911B0408
:10063000A0911C04B0911D04BF93AF939F938F931F
:100640008DE391E09F938F930E94520B809116044B
:1006500090911704A0911804B0911904BF93AF931F
:100660009F938F9388E491E09F938F930E94520B06
:1006700060911604709117048091180490911904E8
:100680000FB6F894DEBF0FBECDBF20E030E040E3F0
:1006900051E4EED21816BCF4809116049091170420
:1006A000A0911804B0911904BF93AF939F938F93B7
:1006B00083E591E09F938F93F5D70F900F900F9064
:1006C0000F900F900F9060911A0470911B0480910D
:1006D0001C0490911D0420E030E040E351E4AAD1D5
:1006E00087FF17C08091160490911704A0911804F9
:1006F000B0911904BF93AF939F938F9389E791E0D3
:100700009F938F93CFD70F900F900F900F900F90D4
:100710000F906091210470912204809123049091A4
:10072000240426E636E64EE950E484D187FD0FC066
:1007300060912104709122048091230490912404FB
:100740002AE939E941EA50E493D21816BCF48091C1
:10075000160490911704A0911804B0911904BF9346
:10076000AF939F938F938FE991E09F938F939AD745
:100770000F900F900F900F900F900F90879903C0DC
:1007800083EB91E0A2D7A3DD962E872E782E692EDB
:10079000D4DDD62EC72EB82EA92E63DD162F072F37
:1007A000F82EE92E20E030E543EC57E4D401F301C4
:1007B0006B2F7A2F8F2F9E2F3DD187FF0FC06F9207
:1007C0007F928F929F9288ED91E09F938F936AD74B
:1007D0000F900F900F900F900F900F9020E030E54A
:1007E00043EC57E4D601F5016B2F7C2D8F2F9A2D0A
:1007F00021D187FF0FC0AF92BF92CF92DF9286E0E8
:1008000092E09F938F934ED70F900F900F900F9081
:100810000F900F9020E030E543EC57E4D801F7014A
:100820006B2F702F8F2F9E2D05D187FF0FC0EF925A
:10083000FF920F931F9384E392E09F938F9332D79D
:100840000F900F900F900F900F900F90C89B03C0C8
:1008500082E692E03AD79B9903C082E892E035D7CE
:100860009D9903C089E992E030D7999903C080EB44
:1008700092E02BD7D1DC2B013C01DEDC4B015C018B
:1008800013B3F3B2FF1CFF24FF1CFF0C9E9902C0A0
:1008900000E001C004E0C3B29D9902C0D12C02C0A7
:1008A00092E0D92E999902C0E12C02C084E0E82E92
:1008B00022E538EB4EE150E4C301B201BBD087FD25
:1008C00009C02EEA37E441E250E4C301B201D0D1BD
:1008D000181624F487EC92E0F8D646C02DEC3CECD8
:1008E0004CE45DE3C501B401A5D087FF3AC02DEC0F
:1008F0003CEC4CE45DEBC501B401BAD118168CF5A3
:10090000129511701F29102B10FF03C08BEF92E07E
:10091000DCD611FF03C083E193E0D7D6812F84702A
:1009200019F08BE293E0D1D611111EC0C3FACC248A
:10093000C0F8DC288D2D8E29873079F4989B08C06B
:1009400083E493E0C2D69A9908C08FE693E004C08E
:100950009A9B03C08AE993E0B8D68BEF92E0B5D6B4
:1009600003C086EC93E0B1D6FFCF5058BB27AA272F
:100970000ED044C135D130F03AD120F031F49F3F50
:1009800011F41EF42AC10EF4E095E7FB20C1E92F13
:1009900046D180F3BA17620773078407950718F0EA
:1009A00071F49EF55EC10EF4E0950B2EBA2FA02DCA
:1009B0000B01B90190010C01CA01A0011124FF270C
:1009C000591B99F0593F50F4503E68F11A16F04007
:1009D000A22F232F342F4427585FF3CF4695379506
:1009E0002795A795F0405395C9F77EF41F16BA0BCB
:1009F000620B730B840BBAF09150A1F0FF0FBB1F79
:100A0000661F771F881FC2F70EC0BA0F621F731FC1
:100A1000841F48F4879577956795B795F7959E3F1E
:100A200008F0B3CF9395880F08F09927EE0F9795AC
:100A300087950895A8D008F481E008950CD0DEC011
:100A4000D6D040F0CDD030F021F45F3F19F0BFC0D8
:100A5000511108C1C2C0E3D098F39923C9F35523BB
:100A6000B1F3951B550BBB27AA27621773078407A1
:100A700038F09F5F5F4F220F331F441FAA1FA9F357
:100A800033D00E2E3AF0E0E830D091505040E69549
:100A9000001CCAF729D0FE2F27D0660F771F881FAA
:100AA000BB1F261737074807AB07B0E809F0BB0B99
:100AB000802DBF01FF2793585F4F2AF09E3F5105BD
:100AC00068F085C0CFC05F3FECF3983EDCF38695BD
:100AD00077956795B795F7959F5FC9F7880F911D33
:100AE0009695879597F90895E1E0660F771F881F1F
:100AF000BB1F621773078407BA0720F0621B730BD2
:100B0000840BBA0BEE1F88F7E0950895E89409C0AE
:100B100097FB3EF490958095709561957F4F8F4F30
:100B20009F4F9923A9F0F92F96E9BB279395F69546
:100B3000879577956795B795F111F8CFFAF4BB0FC4
:100B400011F460FF1BC06F5F7F4F8F4F9F4F16C028
:100B5000882311F096E911C0772321F09EE8872FB2
:100B6000762F05C0662371F096E8862F70E060E06E
:100B70002AF09A95660F771F881FDAF7880F9695E7
:100B8000879597F90895990F0008550FAA0BE0E88B
:100B9000FEEF16161706E807F907C0F0121613063F
:100BA000E407F50798F0621B730B840B950B39F47F
:100BB0000A2661F0232B242B252B21F408950A26E5
:100BC00009F4A140A6958FEF811D811D089597F925
:100BD0009F6780E870E060E008959FEF80EC0895E3
:100BE00000240A941616170618060906089500240C
:100BF0000A9412161306140605060895092E039486
:100C0000000C11F4882352F0BB0F40F4BF2B11F4F9
:100C100060FF04C06F5F7F4F8F4F9F4F089557FD58
:100C20009058440F551F59F05F3F71F04795880F5A
:100C300097FB991F61F09F3F79F0879508951216F1
:100C400013061406551FF2CF4695F1DF08C016169D
:100C500017061806991FF1CF86957105610508944E
:100C60000895E894BB2766277727CB0197F9089565
:100C70008ADF08F48FEF08950BD0C0CFB1DF28F0E2
:100C8000B6DF18F0952309F0A2CFA7CF1124EACF41
:100C9000C6DFA0F3959FD1F3950F50E0551F629FDB
:100CA000F001729FBB27F00DB11D639FAA27F00DC5
:100CB000B11DAA1F649F6627B00DA11D661F829FEC
:100CC0002227B00DA11D621F739FB00DA11D621FD1
:100CD000839FA00D611D221F749F3327A00D611DEE
:100CE000231F849F600D211D822F762F6A2F1124D0
:100CF0009F5750408AF0E1F088234AF0EE0FFF1F23
:100D0000BB1F661F771F881F91505040A9F79E3F59
:100D1000510570F05CCFA6CF5F3FECF3983EDCF35B
:100D2000869577956795B795F795E7959F5FC1F796
:100D3000FE2B880F911D9695879597F908952F9210
:100D40003F924F925F926F927F928F929F92AF925B
:100D5000BF92CF92DF92EF92FF920F931F93CF93A8
:100D6000DF93CDB7DEB760970FB6F894DEBF0FBE46
:100D7000CDBF7C011B016A01FC01178216828381B1
:100D800081FF2AC39E012F5F3F4F3901F7019381F5
:100D9000F10193FD859193FF81911F01882309F44F
:100DA00017C3853239F493FD859193FF81911F011B
:100DB000853231F4B70190E039D456016501E6CFB0
:100DC00010E0512C912CFFE1F915D8F08B3279F01D
:100DD00038F4803279F08332A1F4F92DF0612EC01D
:100DE0008D3261F0803369F4292D21602DC0392DB9
:100DF0003260932E892D8460982E2AC0E92DE860F8
:100E000015C097FC2DC020ED280F2A3088F496FEDF
:100E100006C03AE0139F200D1124122F19C08AE05A
:100E2000589E200D1124522EE92DE0629E2E10C0F6
:100E30008E3231F496FCCCC2F92DF0649F2E08C09E
:100E40008C3621F4292D2068922E02C0883641F478
:100E5000F10193FD859193FF81911F018111B3CF22
:100E60009BEB980F933020F4992D9061805E07C022
:100E70009BE9980F933008F059C1992D9F7E96FFFA
:100E800016E09F73992E853619F49064992E08C048
:100E9000863621F4392F3068932E02C0111111507B
:100EA00097FE07C01C3350F444244394410E27E0BE
:100EB0000BC0183038F027E017E005C027E09CE3AE
:100EC000492E02C0212F412C560184E0A80EB11CEE
:100ED000F6016081718182819381042DA301B8D2D2
:100EE0006C01F981FC87F0FF02C0F3FF06C091FCA2
:100EF00006C092FE06C000E205C00DE203C00BE290
:100F000001C000E08C858C7019F0011143C280C2D1
:100F100097FE10C04C0CFC85F4FF04C08A8181331D
:100F200009F44A94141474F528E0241578F588E03F
:100F3000482E2CC096FC2AC0812F90E08C159D0570
:100F40009CF03CEFC3163FEFD30674F0892D806808
:100F5000982E0AC0E2E0F0E0EC0FFD1FE10FF11D5A
:100F60008081803319F411501111F4CF97FE0EC017
:100F700044244394410E812F90E0C816D9062CF4E6
:100F80001C1904C04424439401C010E097FE06C01D
:100F90001C141D0434F4C601019605C085E090E0E0
:100FA00002C081E090E001110196112331F0212F60
:100FB00030E02F5F3F4F820F931F252D30E08217C7
:100FC000930714F4581A01C0512C892D897041F4EB
:100FD000552031F0B70180E290E028D35A94F8CF41
:100FE000002321F0B701802F90E020D393FC08C0AC
:100FF000552031F0B70180E390E018D35A94F8CF30
:1010000097FE4AC04601D7FE02C0812C912CC60132
:1010100088199909F301E80FF91FFE87ED879601FA
:1010200024193109388B2F87012F10E01195019574
:1010300011093FEF8316930621F4B7018EE290E089
:10104000F5D2C814D9044CF08F8598898815990574
:1010500024F4ED85FE85818101C080E3F1E08F1AE3
:1010600091082D853E852F5F3F4F3E872D87801647
:10107000910624F0B70190E0D9D2DBCFC814D9048F
:1010800041F49A81963320F4953319F43C8534FF6A
:1010900081E3B70190E048C08A81813319F09C85D3
:1010A0009F7E9C87B70190E0C1D2111105C094FCCE
:1010B00016C085E690E015C0B7018EE290E0B6D28A
:1010C0001E5F82E001E0080FF301E80FF11D80814F
:1010D000B70190E0ABD2802F0113F4CFE8CF85E4C5
:1010E00090E0B701A3D2D7FC06C0C114D10441F4EB
:1010F000EC85E4FF05C0D194C194D1088DE201C014
:101100008BE2B70190E092D280E32AE0C216D104CC
:101110002CF08F5FFAE0CF1AD108F7CFB70190E03B
:1011200085D2B701C601C09681D249C1833631F05C
:10113000833779F0833509F052C01FC0560132E081
:10114000A30EB11CF6018081898301E010E06301E8
:1011500011C05601F2E0AF0EB11CF601C080D18083
:1011600096FE03C0612F70E002C06FEF7FEFC601F3
:1011700052D28C01F92DFF7713C0560122E0A20E46
:10118000B11CF601C080D18096FE03C0612F70E0D3
:1011900002C06FEF7FEFC60133D28C01F92DF068EA
:1011A0009F2EF3FD18C0852D90E00817190798F4BD
:1011B000B70180E290E03AD25A94F5CFF60197FC5D
:1011C000859197FE81916F01B70190E02FD2511068
:1011D0005A94015011090115110581F7F0C08436A8
:1011E00011F0893659F5560197FE09C024E0A20E88
:1011F000B11CF60160817181828193810AC0F2E0A5
:10120000AF0EB11CF60160817181072E000C880BB6
:10121000990BF92DFF769F2E97FF09C09095809529
:10122000709561957F4F8F4F9F4FF0689F2E2AE0FA
:1012300030E0A3017AD2C82EC6183EC0092D8537EA
:1012400021F40F7E2AE030E01DC0097F8F3691F037
:1012500018F4883559F0BCC0803719F0883711F080
:10126000B7C0006104FF09C0046007C094FE08C055
:10127000066006C028E030E005C020E130E002C092
:1012800020E132E0560107FF09C084E0A80EB11C3E
:10129000F601608171818281938108C0F2E0AF0E16
:1012A000B11CF6016081718180E090E0A3013DD224
:1012B000C82EC6180F77902E96FE0BC0092D0E7FF4
:1012C000C11650F494FE0AC092FC08C0092D0E7E8F
:1012D00005C0DC2C092D03C0DC2C01C0D12E04FF7D
:1012E0000DC0FE01EC0DF11D8081803311F4097EEB
:1012F00009C002FF06C0D394D39404C0802F86781F
:1013000009F0D39403FD10C000FF06C01C2DD514B6
:1013100078F4150D1D190CC0D51450F4B70180E2F6
:1013200090E084D1D394F8CFD51410F45D1801C0A7
:10133000512C04FF0FC0B70180E390E077D102FF8A
:1013400016C001FD03C088E790E002C088E590E088
:10135000B7010CC0802F867851F001FF02C08BE2EC
:1013600001C080E207FD8DE2B70190E05FD1C116B8
:1013700030F4B70180E390E059D11150F8CFCA940E
:10138000F301EC0DF11D8081B70190E04FD1C11048
:10139000F6CF15C0F4E0F51550F584E0581A93FE29
:1013A0001EC0011125C02C8523FF27C00CE810E0CA
:1013B000392D3071932EF8018491811121C055206F
:1013C00009F4FCCCB70180E290E030D15A94F7CF19
:1013D000F7018681978123C08FEF9FEF20C0B7016F
:1013E00080E290E023D15A945110F9CFDACF512CFA
:1013F000B701802F90E01AD1D6CF00E910E0D8CF06
:1014000091108052B70190E011D10F5F1F4FD3CFE1
:1014100023E0251510F483E0C1CF512CC4CF609692
:101420000FB6F894DEBF0FBECDBFDF91CF911F91F5
:101430000F91FF90EF90DF90CF90BF90AF909F9073
:101440008F907F906F905F904F903F902F90089576
:10145000283008F027E03327DA01990F311D87FD86
:10146000916000966105710539F432602E5F3D93FD
:1014700030E32A95E1F708959F3F30F080387105F9
:10148000610509F03C5F3C5F3D93913008F0806856
:10149000911DDF93CF931F930F93FF92EF92192F1C
:1014A000987F9695E92F96959695E90FFF27E2513B
:1014B000FF4F99273327EE24FF24A701E70105906A
:1014C0000894079428F4360FE71EF81E491F511D93
:1014D000660F771F881F991F0694A1F70590079440
:1014E00028F4E70EF81E491F561FC11D770F881FED
:1014F000991F661F0694A1F70590079428F4F80E2B
:10150000491F561FC71FD11D880F991F661F771FC0
:101510000694A1F70590079420F4490F561FC71FA2
:10152000D81F990F661F771F881F0694A9F784910B
:101530001095177041F0D695C79557954795F79434
:10154000E7941A95C1F7E4E9F0E0689415901591D5
:1015500035916591959105907FE27395E118F10AB7
:10156000430B560BC90BD009C0F7E10CF11E431F0A
:10157000561FC91FD01D7EF4703311F48A95E6CF33
:10158000E894015030F0080F0AF40027021708F41D
:10159000202F2395022F7A3328F079E37D932A9523
:1015A000E9F710C07D932A9589F60694979567957B
:1015B000379517951794E118F10A430B560BC90B91
:1015C000D00998F023957E9173957A3308F070E3F3
:1015D0007C932013B8F77E9170617D9330F08395F2
:1015E00071E37D9370E32A95E1F71124EF90FF906A
:1015F0000F911F91CF91DF91992787FD90950895C5
:10160000FC010590615070400110D8F780959095CD
:101610008E0F9F1F0895FC016150704001900110D2
:10162000D8F7809590958E0F9F1F08950F931F9365
:10163000CF93DF93FB01238121FD03C08FEF9FEF49
:101640002CC022FF16C04681578124813581421764
:10165000530744F4A081B1819D012F5F3F4F318337
:1016600020838C93268137812F5F3F4F37832683DA
:1016700014C08B01EC01FB010084F185E02D09957C
:10168000892BE1F6D80116968D919C9117970196BA
:1016900017969C938E931697CE01DF91CF911F9151
:1016A0000F910895CF93DF93CDB7DEB7AE014B5FB7
:1016B0005F4FFA0161917191AF0180912D0490917A
:1016C0002E043DDBDF91CF9108950F931F93CF93AD
:1016D000DF93E0912D04F0912E04238121FF1BC0A4
:1016E0008C01D0E0C0E0F80181918F0160912D0460
:1016F00070912E04DB011896ED91FC9119978823C7
:1017000031F00995892B79F3DFEFCFEFECCF8AE049
:101710000995892B19F08FEF9FEF02C08D2F9C2F19
:10172000DF91CF911F910F910895FA01AA272830D8
:1017300051F1203181F1E8946F936E7F6E5F7F4F9E
:101740008F4F9F4FAF4FB1E03ED0B4E03CD0670F1A
:10175000781F891F9A1FA11D680F791F8A1F911D6D
:10176000A11D6A0F711D811D911DA11D20D009F4BD
:1017700068943F912AE0269F11243019305D3193FF
:10178000DEF6CF010895462F4770405D4193B3E0E8
:101790000FD0C9F7F6CF462F4F70405D4A3318F08F
:1017A000495D31FD4052419302D0A9F7EACFB4E040
:1017B000A6959795879577956795BA95C9F70097F8
:1017C0006105710508959B01AC010A2E0694579599
:1017D000479537952795BA95C9F7620F731F841FF0
:0A17E000951FA01D0895F894FFCF97
:1017EA000000000200000000E600000000002530B2
:1017FA0032643A253032643A253032642E25303448
:10180A006400D2E5F1F2E5F020DFD4D32D30303296
:10181A003900202B35C23A202566C20A002B313501
:10182A00C23A202566C20A002D3135C23A20256601
:10183A00C20A00CEF2F0E8F6E0F2E5EBFCEDEEE5E6
:10184A0020EDE0EFF0FFE6E5EDE8E520EFE8F2E075
:10185A00EDE8FF202566210A00CFEEEBEEE6E8F27E
:10186A00E5EBFCEDEEE520EDE0EFF0FFE6E5EDE877
:10187A00E520EFE8F2E0EDE8FF202566210A0035D1
:10188A00C220EDE0EFF0FFE6E5EDE8E53A20256657
:10189A00210A00CDE8E7EAEEE520EDE0EFF0FFE609
:1018AA00E5EDE8E520EBEEE3E8F7E5F1EAE8F52017
:1018BA00E2F5EEE4EEE22100D1EEEFF0EEF2E8E23C
:1018CA00EBE5EDE8E520E7E0EAF0FBF2EEE3EE20F7
:1018DA00EAEBFEF7E0204434206131302D613134E7
:1018EA00202566210A00D1EEEFF0EEF2E8E2EBE500
:1018FA00EDE8E520E7E0EAF0FBF2EEE3EE20EAEBC2
:10190A00FEF7E0204434206231302D623135202543
:10191A0066210A00D1EEEFF0EEF2E8E2EBE5EDE83F
:10192A00E520E7E0EAF0FBF2EEE3EE20EAEBFEF771
:10193A00E0204434206131312D6131332025662184
:10194A000A00CDE020E2FBF5EEE4E52044312E3139
:10195A0020E2FBF1EEEAE8E920F3F0EEE2E5EDFC45
:10196A002100CDE02041323020EDE8E7EAE8E92025
:10197A00F3F0EEE2E5EDFC2100CDE0204131382024
:10198A00EDE8E7EAE8E920F3F0EEE2E5EDFC210014
:10199A00CDE02042323020EDE8E7EAE8E920F3F032
:1019AA00EEE2E5EDFC2100CDE0EFF0FFE6E5EDE843
:1019BA00E520D8C8CC20EDE520322C35C2212028DC
:1019CA00CDE5E8F1EFF0E0E2EDEEF1F2FC20D8C867
:1019DA00CC20F2E5F1F2E5F0E02900CDE020C8CD17
:1019EA003120E2FBF1EEEAE8E920F3F0EEE2E5ED80
:1019FA00FC2100CDE020C8CD3220E2FBF1EEEAE87E
:101A0A00E920F3F0EEE2E5EDFC2100CDE020C8CDBF
:101A1A003320E2FBF1EEEAE8E920F3F0EEE2E5ED4D
:101A2A00FC2100CDE02022C2FBF52EEFF02E222071
:101A3A00E2FBF1EEEAE8E920F3F0EEE2E5EDFC2163
:101A4A0020CDE520E8F1EFF02E2044332E3100CDF1
:101A5A00E02022C2FBF52EE8ED2E2220EDE8E7EA8F
:101A6A00E8E920F3F0EEE2E5EDFC2120CDE520E8FF
:101A7A00F1EFF02E2044332E3300CDE02022C2FBBA
:101A8A00F52EE8ED2E2220E2FBF1EEEAE8E920F35A
:101A9A00F0EEE2E5EDFC2120CDE520E8F1EFF02EB5
:101AAA002044332E3300CDE0EFF0FFE6E5EDE8E524
:101ABA0020EDE020E2F5EEE4E520EDE520F0E0E2BD
:101ACA00EDEE20EDF3EBFE212028CDE5E8F1EFF075
:101ADA00E0E2EDEEF1F2FC20D6C0CF20F2E5F1F221
:061AEA00E5F0E029000018
:00000001FF
